:100000000C942A000C9447000C9447000C94470071
:100010000C9447000C9447000C9447000C94470044
:100020000C9447000C9447000C9451010C942A0145
:100030000C9447000C9447000C9447000C94470024
:100040000C9447000C9447000C9447000C94470014
:100050000C94470011241FBECFE5D8E0DEBFCDBF12
:1000600010E0A0E6B0E0E6ECF7E002C005900D92EB
:10007000A237B107D9F710E0A2E7B0E001C01D92A6
:10008000AE38B107E1F70E9466030C94E1030C94CB
:100090000000EF92FF920F931F93DC0130E08BE0A2
:1000A00090E0289FF001299FF00D389FF00D11245A
:1000B000EE58FF4F80819181892B61F4B183A08339
:1000C000428353836483758381E08683E782F0866D
:1000D000018712871F910F91FF90EF900895E09193
:1000E0007200F0917300309719F181E080937800ED
:1000F0008091790090917A00A0917B00B0917C0072
:100100000097A105B10549F409958091740090917B
:100110007500A0917600B09177000197A109B1090F
:100120008093790090937A00A0937B00B0937C0039
:10013000E0917D00F0917E00309779F181E080932D
:1001400083008091840090918500A0918600B091F9
:1001500087000097A105B105A9F4099580917F005A
:1001600090918000A0918100B09182000197A10937
:10017000B1098093840090938500A0938600B0938A
:10018000870008950197A109B10980938400909395
:100190008500A0938600B0938700089590E02BE03F
:1001A00030E0829FF001839FF00D929FF00D1124AB
:1001B000EE58FF4F11821082089590E02BE030E05E
:1001C000829FF001839FF00D929FF00D1124EE5855
:1001D000FF4F1682089590E02BE030E0829FF001FF
:1001E000839FF00D929FF00D1124EE58FF4F81E098
:1001F000868308958FE690E00E9425018FE10E949A
:100200001E010E9406010E947801089583B7887F2D
:1002100083BF83B7846083BF83B78F7B83BF83B77C
:10022000886083BF89B7826089BF83B78F7D83BFB2
:1002300083B78F7E83BF089582BF08958CBF0895D2
:1002400090938D0080938C00089590938D008093FF
:100250008C0008951F920F920FB60F9211242F93C6
:100260003F934F935F936F937F938F939F93AF933E
:10027000BF93EF93FF93E0918C00F0918D0009956F
:10028000FF91EF91BF91AF919F918F917F916F916E
:100290005F914F913F912F910F900FBE0F901F9044
:1002A00018951F920F920FB60F9211242F933F9320
:1002B0004F935F936F937F938F939F93AF93BF936E
:1002C000EF93FF93E0918C00F0918D000995FF91E1
:1002D000EF91BF91AF919F918F917F916F915F91BE
:1002E0004F913F912F910F900FBE0F901F90189537
:1002F0008FB780688FBF08958FB78F778FBF0895AE
:10030000382F883008F07AC0613029F1613038F038
:10031000623009F43CC0633009F070C053C0413012
:1003200059F42AB381E090E002C0880F991F3A95F2
:10033000E2F7282B2ABB60C0442309F05FC02AB330
:1003400081E090E002C0880F991F3A95E2F780950E
:1003500082238ABB51C0413059F427B381E090E039
:1003600002C0880F991F3A95E2F7282B27BB44C09B
:10037000442309F043C027B381E090E002C0880F16
:10038000991F3A95E2F78095822387BB35C04130AB
:1003900059F424B381E090E002C0880F991F3A9588
:1003A000E2F7282B24BB28C0442341F524B381E085
:1003B00090E002C0880F991F3A95E2F7809582235A
:1003C00084BB1AC0413059F421B381E090E002C0EF
:1003D000880F991F3A95E2F7282B21BB0DC04423C3
:1003E00069F421B381E090E002C0880F991F3A952B
:1003F000E2F78095822381BB81E0089580E0089533
:10040000982F862F81508E3F90F0913049F0913097
:1004100028F0923039F0933051F406C06ABB05C021
:1004200067BB03C064BB01C061BB81E0089580E08D
:100430000895382F883008F07AC0613029F1613092
:1004400038F0623009F43CC0633009F070C053C02A
:10045000413059F42BB381E090E002C0880F991F1E
:100460003A95E2F7282B2BBB60C0442309F05FC00C
:100470002BB381E090E002C0880F991F3A95E2F714
:10048000809582238BBB51C0413059F428B381E061
:1004900090E002C0880F991F3A95E2F7282B28BBFD
:1004A00044C0442309F043C028B381E090E002C077
:1004B000880F991F3A95E2F78095822388BB35C053
:1004C000413059F425B381E090E002C0880F991FB4
:1004D0003A95E2F7282B25BB28C0442341F525B3E4
:1004E00081E090E002C0880F991F3A95E2F780956D
:1004F000822385BB1AC0413059F422B381E090E0D9
:1005000002C0880F991F3A95E2F7282B22BB0DC035
:10051000442369F422B381E090E002C0880F991F60
:100520003A95E2F78095822382BB81E0089580E0CE
:100530000895813051F0813030F0823041F08330C5
:1005400049F080E008956BBB03C068BB01C065BB88
:1005500081E0089562BB81E00895282FFA01883078
:10056000E8F441305105D1F0613049F0613028F0B4
:10057000623039F0633091F406C089B305C086B3A8
:1005800003C083B301C080B390E002C09595879506
:100590002A95E2F78170808381E0089580E00895D4
:1005A000982F853008F047C06130B9F0613030F0E5
:1005B000623011F1633009F03EC02DC08BB32FE0E3
:1005C00030E002C0220F331F9A95E2F720952823CE
:1005D0002BBB8BB3842B8BBB2CC088B32FE030E0BC
:1005E00002C0220F331F9A95E2F72095282328BBDB
:1005F00088B3842B88BB1DC085B32FE030E002C0D8
:10060000220F331F9A95E2F72095282325BB85B347
:10061000842B85BB0EC082B32FE030E002C0220FD6
:10062000331F9A95E2F72095282322BB82B3842BAF
:1006300082BB81E0089580E00895FC0180918800EC
:10064000882349F48181608141E00E94190281E0A0
:10065000809388000895813039F48181608140E081
:100660000E941902109288000895FC018181608126
:1006700040E00E9419020895FC018181608141E0FF
:100680000E9419020895FC018181608141E00E946D
:100690008001089588B3806588BBC59880E197E2A2
:1006A00028EC30E0F9013197F1F70197D9F7089577
:1006B00088B3806688BBC49880E197E228EC30E07C
:1006C000F9013197F1F70197D9F70895EF92FF9269
:1006D0000F931F9381E06FEF0E94000283E06FEFA2
:1006E0000E9400028AE493E048EE53E060E070E08C
:1006F00020E0EE24FF2487010E9449000E94FA00B6
:10070000FFCF809189008F5F8093890082E061E054
:1007100041E00E94190281E061E040E00E9419027C
:10072000E0917000F0E0EA59FF4F83E060810E94A1
:10073000990280918900843661F480917000815023
:10074000809370008F3F19F489E0809370001092BD
:100750008900089580918A008F5F80938A0082E0EB
:1007600061E040E00E94190281E061E041E00E9406
:100770001902E0918B00F0E0EA59FF4F83E06081BD
:100780000E94990280918A00843659F480918B00EE
:100790008F5F80938B008A3011F410928B0010923F
:1007A0008A00089584E690E00E941D03089582E681
:1007B00090E00E941D03089580E690E00E941D03D2
:0607C0000895F894FFCF3C
:1007C6000300030103023F065B4F666D7D077F6FE3
:0207D600090018
:00000001FF
